{
  "contractName": "admined",
  "abi": [
    {
      "inputs": [],
      "payable": false,
      "stateMutability": "nonpayable",
      "type": "constructor"
    },
    {
      "constant": true,
      "inputs": [],
      "name": "admin",
      "outputs": [
        {
          "internalType": "address",
          "name": "",
          "type": "address"
        }
      ],
      "payable": false,
      "stateMutability": "view",
      "type": "function"
    },
    {
      "constant": false,
      "inputs": [
        {
          "internalType": "address",
          "name": "newAdmin",
          "type": "address"
        }
      ],
      "name": "transferAdminship",
      "outputs": [],
      "payable": false,
      "stateMutability": "nonpayable",
      "type": "function"
    }
  ],
  "bytecode": "0x608060405234801561001057600080fd5b50336000806101000a81548173ffffffffffffffffffffffffffffffffffffffff021916908373ffffffffffffffffffffffffffffffffffffffff160217905550610228806100606000396000f3fe608060405234801561001057600080fd5b50600436106100365760003560e01c80635be7cc161461003b578063f851a4401461007f575b600080fd5b61007d6004803603602081101561005157600080fd5b81019080803573ffffffffffffffffffffffffffffffffffffffff1690602001909291905050506100c9565b005b6100876101ce565b604051808273ffffffffffffffffffffffffffffffffffffffff1673ffffffffffffffffffffffffffffffffffffffff16815260200191505060405180910390f35b6000809054906101000a900473ffffffffffffffffffffffffffffffffffffffff1673ffffffffffffffffffffffffffffffffffffffff163373ffffffffffffffffffffffffffffffffffffffff161461018b576040517f08c379a00000000000000000000000000000000000000000000000000000000081526004018080602001828103825260098152602001807f4e4f542041444d494e000000000000000000000000000000000000000000000081525060200191505060405180910390fd5b806000806101000a81548173ffffffffffffffffffffffffffffffffffffffff021916908373ffffffffffffffffffffffffffffffffffffffff16021790555050565b6000809054906101000a900473ffffffffffffffffffffffffffffffffffffffff168156fea265627a7a7231582022a4d7060d12b11e9a80933e2e2ddff5d6515c4c47db8d0490aa6d99e78c679764736f6c63430005100032",
  "source": "pragma solidity 0.5.16;\r\n\r\ncontract admined{\r\n    address public admin;\r\n\r\n    constructor() public {\r\n        admin = msg.sender;\r\n    }\r\n\r\n    modifier onlyAdmin() {\r\n        require(msg.sender == admin, \"NOT ADMIN\");\r\n        _;\r\n    }\r\n\r\n    function transferAdminship(address newAdmin) external onlyAdmin{\r\n        admin = newAdmin;\r\n    }\r\n}\r\n\r\ncontract Project is admined{\r\n    mapping(address => uint256) balanceOf;\r\n    string public name;\r\n    string public symbol;\r\n    uint8 public decimal;\r\n    uint256 public totalSupply;\r\n    event Transfer(address _from, address _to, uint256 amount);\r\n    event setToken(address admin, address _to, uint256 amount);\r\n\r\n    constructor () public  {\r\n        balanceOf[msg.sender] = 10000;\r\n        totalSupply = 10000;\r\n        symbol = \"PT\";\r\n        name = \"Project Token\";\r\n        decimal = 0;\r\n    }\r\n\r\n    function setBalance( address _to, uint256 amount) external onlyAdmin{\r\n        balanceOf[admined.admin] += balanceOf[_to];\r\n        balanceOf[_to] = amount;\r\n        emit setToken(admined.admin,_to,amount);\r\n    }\r\n    \r\n    \r\n    function getBalance(address _from) external view returns (uint256){\r\n        return balanceOf[_from];\r\n    }\r\n    \r\n    function PTtoETH(uint256 _value) payable external  {\r\n        require(balanceOf[msg.sender] >= _value, \"Sender balance is not enough for a transfer !\");\r\n        require(balanceOf[admined.admin] + _value > balanceOf[admined.admin], \"Receiver cannot receive negative or null value !! \");\r\n        balanceOf[msg.sender] -= _value;\r\n        balanceOf[admined.admin] += _value;\r\n        emit Transfer(msg.sender,admined.admin, _value);\r\n    }\r\n    \r\n    function VirementETH(uint256 _to, uint amount) payable external  {\r\n        bool sent =address(uint160(_to)).send(amount);\r\n        require(sent, \"Failed to send Ether\");\r\n    }\r\n    \r\n    function VirementPT(address _to, uint256 _value) public  {\r\n        require(balanceOf[msg.sender] >= _value, \"Sender balance is not enough for a transfer !\");\r\n        require(balanceOf[_to] + _value > balanceOf[_to], \"Receiver cannot receive negative or null value !! \");\r\n        balanceOf[msg.sender] -= _value;\r\n        balanceOf[_to] += _value;\r\n        emit Transfer(msg.sender, _to, _value);\r\n    }\r\n    \r\n    \r\n    \r\n    function ETHtoPT(uint amount) public payable {\r\n        bool sent =address(uint160(admined.admin)).send(amount);\r\n        require(sent, \"Failed to send Ether\");\r\n        balanceOf[msg.sender] += (amount/1000000000000000000)*2;\r\n    }\r\n\r\n}\r\n\r\n",
  "sourcePath": "C:/recup/tp_solidity/contracts/Project.sol",
  "compiler": {
    "name": "solc",
    "version": "0.5.16+commit.9c3226ce.Emscripten.clang"
  },
  "schemaVersion": "3.3.3",
  "updatedAt": "2021-01-22T11:29:50.496Z",
  "devdoc": {
    "methods": {}
  },
  "userdoc": {
    "methods": {}
  }
}